{
	"abi": [
		{
			"type": "constructor",
			"inputs": [
				{
					"name": "_positionManager",
					"type": "address",
					"internalType": "address"
				},
				{
					"name": "_treasury",
					"type": "address",
					"internalType": "address"
				},
				{
					"name": "_treasuryFeePercent",
					"type": "uint256",
					"internalType": "uint256"
				},
				{
					"name": "_token0",
					"type": "address",
					"internalType": "address"
				},
				{
					"name": "_token1",
					"type": "address",
					"internalType": "address"
				},
				{
					"name": "_minAmount0",
					"type": "uint256",
					"internalType": "uint256"
				},
				{
					"name": "_minAmount1",
					"type": "uint256",
					"internalType": "uint256"
				},
				{
					"name": "_maxAmount0",
					"type": "uint256",
					"internalType": "uint256"
				},
				{
					"name": "_maxAmount1",
					"type": "uint256",
					"internalType": "uint256"
				}
			],
			"stateMutability": "nonpayable"
		},
		{
			"type": "function",
			"name": "ADMIN_ROLE",
			"inputs": [],
			"outputs": [
				{
					"name": "",
					"type": "bytes32",
					"internalType": "bytes32"
				}
			],
			"stateMutability": "view"
		},
		{
			"type": "function",
			"name": "DEFAULT_ADMIN_ROLE",
			"inputs": [],
			"outputs": [
				{
					"name": "",
					"type": "bytes32",
					"internalType": "bytes32"
				}
			],
			"stateMutability": "view"
		},
		{
			"type": "function",
			"name": "FEE_MANAGER_ROLE",
			"inputs": [],
			"outputs": [
				{
					"name": "",
					"type": "bytes32",
					"internalType": "bytes32"
				}
			],
			"stateMutability": "view"
		},
		{
			"type": "function",
			"name": "OPERATOR_ROLE",
			"inputs": [],
			"outputs": [
				{
					"name": "",
					"type": "bytes32",
					"internalType": "bytes32"
				}
			],
			"stateMutability": "view"
		},
		{
			"type": "function",
			"name": "PAUSER_ROLE",
			"inputs": [],
			"outputs": [
				{
					"name": "",
					"type": "bytes32",
					"internalType": "bytes32"
				}
			],
			"stateMutability": "view"
		},
		{
			"type": "function",
			"name": "addAdmin",
			"inputs": [
				{
					"name": "account",
					"type": "address",
					"internalType": "address"
				}
			],
			"outputs": [],
			"stateMutability": "nonpayable"
		},
		{
			"type": "function",
			"name": "addFeeManager",
			"inputs": [
				{
					"name": "account",
					"type": "address",
					"internalType": "address"
				}
			],
			"outputs": [],
			"stateMutability": "nonpayable"
		},
		{
			"type": "function",
			"name": "addOperator",
			"inputs": [
				{
					"name": "account",
					"type": "address",
					"internalType": "address"
				}
			],
			"outputs": [],
			"stateMutability": "nonpayable"
		},
		{
			"type": "function",
			"name": "addPauser",
			"inputs": [
				{
					"name": "account",
					"type": "address",
					"internalType": "address"
				}
			],
			"outputs": [],
			"stateMutability": "nonpayable"
		},
		{
			"type": "function",
			"name": "batchUpdateConfig",
			"inputs": [
				{
					"name": "_treasury",
					"type": "address",
					"internalType": "address"
				},
				{
					"name": "_treasuryFeePercent",
					"type": "uint256",
					"internalType": "uint256"
				},
				{
					"name": "_token0",
					"type": "address",
					"internalType": "address"
				},
				{
					"name": "_token1",
					"type": "address",
					"internalType": "address"
				},
				{
					"name": "_minAmount0",
					"type": "uint256",
					"internalType": "uint256"
				},
				{
					"name": "_maxAmount0",
					"type": "uint256",
					"internalType": "uint256"
				},
				{
					"name": "_minAmount1",
					"type": "uint256",
					"internalType": "uint256"
				},
				{
					"name": "_maxAmount1",
					"type": "uint256",
					"internalType": "uint256"
				}
			],
			"outputs": [],
			"stateMutability": "nonpayable"
		},
		{
			"type": "function",
			"name": "burnLiquidity",
			"inputs": [
				{
					"name": "tokenId",
					"type": "uint256",
					"internalType": "uint256"
				}
			],
			"outputs": [
				{
					"name": "amount0",
					"type": "uint256",
					"internalType": "uint256"
				},
				{
					"name": "amount1",
					"type": "uint256",
					"internalType": "uint256"
				}
			],
			"stateMutability": "nonpayable"
		},
		{
			"type": "function",
			"name": "collectFees",
			"inputs": [
				{
					"name": "tokenId",
					"type": "uint256",
					"internalType": "uint256"
				}
			],
			"outputs": [
				{
					"name": "amount0",
					"type": "uint256",
					"internalType": "uint256"
				},
				{
					"name": "amount1",
					"type": "uint256",
					"internalType": "uint256"
				}
			],
			"stateMutability": "nonpayable"
		},
		{
			"type": "function",
			"name": "decreaseLiquidity",
			"inputs": [
				{
					"name": "tokenId",
					"type": "uint256",
					"internalType": "uint256"
				},
				{
					"name": "liquidity",
					"type": "uint128",
					"internalType": "uint128"
				}
			],
			"outputs": [
				{
					"name": "amount0",
					"type": "uint256",
					"internalType": "uint256"
				},
				{
					"name": "amount1",
					"type": "uint256",
					"internalType": "uint256"
				}
			],
			"stateMutability": "nonpayable"
		},
		{
			"type": "function",
			"name": "emergencyWithdraw",
			"inputs": [
				{
					"name": "token",
					"type": "address",
					"internalType": "address"
				},
				{
					"name": "recipient",
					"type": "address",
					"internalType": "address"
				},
				{
					"name": "amount",
					"type": "uint256",
					"internalType": "uint256"
				}
			],
			"outputs": [],
			"stateMutability": "nonpayable"
		},
		{
			"type": "function",
			"name": "getRoleAdmin",
			"inputs": [
				{
					"name": "role",
					"type": "bytes32",
					"internalType": "bytes32"
				}
			],
			"outputs": [
				{
					"name": "",
					"type": "bytes32",
					"internalType": "bytes32"
				}
			],
			"stateMutability": "view"
		},
		{
			"type": "function",
			"name": "getUserPositionIds",
			"inputs": [
				{
					"name": "user",
					"type": "address",
					"internalType": "address"
				}
			],
			"outputs": [
				{
					"name": "",
					"type": "uint256[]",
					"internalType": "uint256[]"
				}
			],
			"stateMutability": "view"
		},
		{
			"type": "function",
			"name": "grantRole",
			"inputs": [
				{
					"name": "role",
					"type": "bytes32",
					"internalType": "bytes32"
				},
				{
					"name": "account",
					"type": "address",
					"internalType": "address"
				}
			],
			"outputs": [],
			"stateMutability": "nonpayable"
		},
		{
			"type": "function",
			"name": "hasAdminRole",
			"inputs": [
				{
					"name": "account",
					"type": "address",
					"internalType": "address"
				}
			],
			"outputs": [
				{
					"name": "",
					"type": "bool",
					"internalType": "bool"
				}
			],
			"stateMutability": "view"
		},
		{
			"type": "function",
			"name": "hasFeeManagerRole",
			"inputs": [
				{
					"name": "account",
					"type": "address",
					"internalType": "address"
				}
			],
			"outputs": [
				{
					"name": "",
					"type": "bool",
					"internalType": "bool"
				}
			],
			"stateMutability": "view"
		},
		{
			"type": "function",
			"name": "hasOperatorRole",
			"inputs": [
				{
					"name": "account",
					"type": "address",
					"internalType": "address"
				}
			],
			"outputs": [
				{
					"name": "",
					"type": "bool",
					"internalType": "bool"
				}
			],
			"stateMutability": "view"
		},
		{
			"type": "function",
			"name": "hasPauserRole",
			"inputs": [
				{
					"name": "account",
					"type": "address",
					"internalType": "address"
				}
			],
			"outputs": [
				{
					"name": "",
					"type": "bool",
					"internalType": "bool"
				}
			],
			"stateMutability": "view"
		},
		{
			"type": "function",
			"name": "hasRole",
			"inputs": [
				{
					"name": "role",
					"type": "bytes32",
					"internalType": "bytes32"
				},
				{
					"name": "account",
					"type": "address",
					"internalType": "address"
				}
			],
			"outputs": [
				{
					"name": "",
					"type": "bool",
					"internalType": "bool"
				}
			],
			"stateMutability": "view"
		},
		{
			"type": "function",
			"name": "increaseLiquidity",
			"inputs": [
				{
					"name": "tokenId",
					"type": "uint256",
					"internalType": "uint256"
				},
				{
					"name": "amount0Desired",
					"type": "uint256",
					"internalType": "uint256"
				},
				{
					"name": "amount1Desired",
					"type": "uint256",
					"internalType": "uint256"
				}
			],
			"outputs": [
				{
					"name": "liquidityAdded",
					"type": "uint128",
					"internalType": "uint128"
				},
				{
					"name": "amount0",
					"type": "uint256",
					"internalType": "uint256"
				},
				{
					"name": "amount1",
					"type": "uint256",
					"internalType": "uint256"
				}
			],
			"stateMutability": "nonpayable"
		},
		{
			"type": "function",
			"name": "maxAmount0",
			"inputs": [],
			"outputs": [
				{
					"name": "",
					"type": "uint256",
					"internalType": "uint256"
				}
			],
			"stateMutability": "view"
		},
		{
			"type": "function",
			"name": "maxAmount1",
			"inputs": [],
			"outputs": [
				{
					"name": "",
					"type": "uint256",
					"internalType": "uint256"
				}
			],
			"stateMutability": "view"
		},
		{
			"type": "function",
			"name": "minAmount0",
			"inputs": [],
			"outputs": [
				{
					"name": "",
					"type": "uint256",
					"internalType": "uint256"
				}
			],
			"stateMutability": "view"
		},
		{
			"type": "function",
			"name": "minAmount1",
			"inputs": [],
			"outputs": [
				{
					"name": "",
					"type": "uint256",
					"internalType": "uint256"
				}
			],
			"stateMutability": "view"
		},
		{
			"type": "function",
			"name": "mintLiquidity",
			"inputs": [
				{
					"name": "amount0Desired",
					"type": "uint256",
					"internalType": "uint256"
				},
				{
					"name": "amount1Desired",
					"type": "uint256",
					"internalType": "uint256"
				},
				{
					"name": "lowerTick",
					"type": "int24",
					"internalType": "int24"
				},
				{
					"name": "upperTick",
					"type": "int24",
					"internalType": "int24"
				}
			],
			"outputs": [
				{
					"name": "tokenId",
					"type": "uint256",
					"internalType": "uint256"
				},
				{
					"name": "liquidity",
					"type": "uint128",
					"internalType": "uint128"
				},
				{
					"name": "amount0",
					"type": "uint256",
					"internalType": "uint256"
				},
				{
					"name": "amount1",
					"type": "uint256",
					"internalType": "uint256"
				}
			],
			"stateMutability": "nonpayable"
		},
		{
			"type": "function",
			"name": "pause",
			"inputs": [],
			"outputs": [],
			"stateMutability": "nonpayable"
		},
		{
			"type": "function",
			"name": "paused",
			"inputs": [],
			"outputs": [
				{
					"name": "",
					"type": "bool",
					"internalType": "bool"
				}
			],
			"stateMutability": "view"
		},
		{
			"type": "function",
			"name": "positionManager",
			"inputs": [],
			"outputs": [
				{
					"name": "",
					"type": "address",
					"internalType": "contract ICamelotNonfungiblePositionManager"
				}
			],
			"stateMutability": "view"
		},
		{
			"type": "function",
			"name": "rebalanceLiquidity",
			"inputs": [
				{
					"name": "tokenId",
					"type": "uint256",
					"internalType": "uint256"
				},
				{
					"name": "lowerTick",
					"type": "int24",
					"internalType": "int24"
				},
				{
					"name": "upperTick",
					"type": "int24",
					"internalType": "int24"
				}
			],
			"outputs": [
				{
					"name": "newTokenId",
					"type": "uint256",
					"internalType": "uint256"
				},
				{
					"name": "newLiquidity",
					"type": "uint128",
					"internalType": "uint128"
				}
			],
			"stateMutability": "nonpayable"
		},
		{
			"type": "function",
			"name": "removeAdmin",
			"inputs": [
				{
					"name": "account",
					"type": "address",
					"internalType": "address"
				}
			],
			"outputs": [],
			"stateMutability": "nonpayable"
		},
		{
			"type": "function",
			"name": "removeFeeManager",
			"inputs": [
				{
					"name": "account",
					"type": "address",
					"internalType": "address"
				}
			],
			"outputs": [],
			"stateMutability": "nonpayable"
		},
		{
			"type": "function",
			"name": "removeOperator",
			"inputs": [
				{
					"name": "account",
					"type": "address",
					"internalType": "address"
				}
			],
			"outputs": [],
			"stateMutability": "nonpayable"
		},
		{
			"type": "function",
			"name": "removePauser",
			"inputs": [
				{
					"name": "account",
					"type": "address",
					"internalType": "address"
				}
			],
			"outputs": [],
			"stateMutability": "nonpayable"
		},
		{
			"type": "function",
			"name": "renounceRole",
			"inputs": [
				{
					"name": "role",
					"type": "bytes32",
					"internalType": "bytes32"
				},
				{
					"name": "callerConfirmation",
					"type": "address",
					"internalType": "address"
				}
			],
			"outputs": [],
			"stateMutability": "nonpayable"
		},
		{
			"type": "function",
			"name": "revokeRole",
			"inputs": [
				{
					"name": "role",
					"type": "bytes32",
					"internalType": "bytes32"
				},
				{
					"name": "account",
					"type": "address",
					"internalType": "address"
				}
			],
			"outputs": [],
			"stateMutability": "nonpayable"
		},
		{
			"type": "function",
			"name": "supportsInterface",
			"inputs": [
				{
					"name": "interfaceId",
					"type": "bytes4",
					"internalType": "bytes4"
				}
			],
			"outputs": [
				{
					"name": "",
					"type": "bool",
					"internalType": "bool"
				}
			],
			"stateMutability": "view"
		},
		{
			"type": "function",
			"name": "tickSpacing",
			"inputs": [],
			"outputs": [
				{
					"name": "",
					"type": "int24",
					"internalType": "int24"
				}
			],
			"stateMutability": "view"
		},
		{
			"type": "function",
			"name": "token0",
			"inputs": [],
			"outputs": [
				{
					"name": "",
					"type": "address",
					"internalType": "address"
				}
			],
			"stateMutability": "view"
		},
		{
			"type": "function",
			"name": "token1",
			"inputs": [],
			"outputs": [
				{
					"name": "",
					"type": "address",
					"internalType": "address"
				}
			],
			"stateMutability": "view"
		},
		{
			"type": "function",
			"name": "treasury",
			"inputs": [],
			"outputs": [
				{
					"name": "",
					"type": "address",
					"internalType": "address"
				}
			],
			"stateMutability": "view"
		},
		{
			"type": "function",
			"name": "treasuryFeePercent",
			"inputs": [],
			"outputs": [
				{
					"name": "",
					"type": "uint256",
					"internalType": "uint256"
				}
			],
			"stateMutability": "view"
		},
		{
			"type": "function",
			"name": "unpause",
			"inputs": [],
			"outputs": [],
			"stateMutability": "nonpayable"
		},
		{
			"type": "function",
			"name": "updateAmountLimits",
			"inputs": [
				{
					"name": "_minAmount0",
					"type": "uint256",
					"internalType": "uint256"
				},
				{
					"name": "_maxAmount0",
					"type": "uint256",
					"internalType": "uint256"
				},
				{
					"name": "_minAmount1",
					"type": "uint256",
					"internalType": "uint256"
				},
				{
					"name": "_maxAmount1",
					"type": "uint256",
					"internalType": "uint256"
				}
			],
			"outputs": [],
			"stateMutability": "nonpayable"
		},
		{
			"type": "function",
			"name": "updateTokenPair",
			"inputs": [
				{
					"name": "_token0",
					"type": "address",
					"internalType": "address"
				},
				{
					"name": "_token1",
					"type": "address",
					"internalType": "address"
				}
			],
			"outputs": [],
			"stateMutability": "nonpayable"
		},
		{
			"type": "function",
			"name": "updateTreasury",
			"inputs": [
				{
					"name": "_treasury",
					"type": "address",
					"internalType": "address"
				},
				{
					"name": "_treasuryFeePercent",
					"type": "uint256",
					"internalType": "uint256"
				}
			],
			"outputs": [],
			"stateMutability": "nonpayable"
		},
		{
			"type": "function",
			"name": "userPositionIds",
			"inputs": [
				{
					"name": "",
					"type": "address",
					"internalType": "address"
				},
				{
					"name": "",
					"type": "uint256",
					"internalType": "uint256"
				}
			],
			"outputs": [
				{
					"name": "",
					"type": "uint256",
					"internalType": "uint256"
				}
			],
			"stateMutability": "view"
		},
		{
			"type": "event",
			"name": "AmountLimitsUpdated",
			"inputs": [
				{
					"name": "minAmount0",
					"type": "uint256",
					"indexed": false,
					"internalType": "uint256"
				},
				{
					"name": "maxAmount0",
					"type": "uint256",
					"indexed": false,
					"internalType": "uint256"
				},
				{
					"name": "minAmount1",
					"type": "uint256",
					"indexed": false,
					"internalType": "uint256"
				},
				{
					"name": "maxAmount1",
					"type": "uint256",
					"indexed": false,
					"internalType": "uint256"
				}
			],
			"anonymous": false
		},
		{
			"type": "event",
			"name": "Burned",
			"inputs": [
				{
					"name": "tokenId",
					"type": "uint256",
					"indexed": false,
					"internalType": "uint256"
				},
				{
					"name": "amount0",
					"type": "uint256",
					"indexed": false,
					"internalType": "uint256"
				},
				{
					"name": "amount1",
					"type": "uint256",
					"indexed": false,
					"internalType": "uint256"
				}
			],
			"anonymous": false
		},
		{
			"type": "event",
			"name": "CollectFee",
			"inputs": [
				{
					"name": "tokenId",
					"type": "uint256",
					"indexed": false,
					"internalType": "uint256"
				},
				{
					"name": "treasuryAmount0",
					"type": "uint256",
					"indexed": false,
					"internalType": "uint256"
				},
				{
					"name": "treasuryAmount1",
					"type": "uint256",
					"indexed": false,
					"internalType": "uint256"
				}
			],
			"anonymous": false
		},
		{
			"type": "event",
			"name": "LiquidityDecreased",
			"inputs": [
				{
					"name": "tokenId",
					"type": "uint256",
					"indexed": false,
					"internalType": "uint256"
				},
				{
					"name": "liquidityRemoved",
					"type": "uint128",
					"indexed": false,
					"internalType": "uint128"
				},
				{
					"name": "amount0",
					"type": "uint256",
					"indexed": false,
					"internalType": "uint256"
				},
				{
					"name": "amount1",
					"type": "uint256",
					"indexed": false,
					"internalType": "uint256"
				}
			],
			"anonymous": false
		},
		{
			"type": "event",
			"name": "LiquidityIncreased",
			"inputs": [
				{
					"name": "tokenId",
					"type": "uint256",
					"indexed": false,
					"internalType": "uint256"
				},
				{
					"name": "liquidityAdded",
					"type": "uint128",
					"indexed": false,
					"internalType": "uint128"
				},
				{
					"name": "amount0",
					"type": "uint256",
					"indexed": false,
					"internalType": "uint256"
				},
				{
					"name": "amount1",
					"type": "uint256",
					"indexed": false,
					"internalType": "uint256"
				}
			],
			"anonymous": false
		},
		{
			"type": "event",
			"name": "Minted",
			"inputs": [
				{
					"name": "tokenId",
					"type": "uint256",
					"indexed": false,
					"internalType": "uint256"
				},
				{
					"name": "liquidity",
					"type": "uint128",
					"indexed": false,
					"internalType": "uint128"
				}
			],
			"anonymous": false
		},
		{
			"type": "event",
			"name": "Paused",
			"inputs": [
				{
					"name": "account",
					"type": "address",
					"indexed": false,
					"internalType": "address"
				}
			],
			"anonymous": false
		},
		{
			"type": "event",
			"name": "Rebalanced",
			"inputs": [
				{
					"name": "oldTokenId",
					"type": "uint256",
					"indexed": false,
					"internalType": "uint256"
				},
				{
					"name": "newTokenId",
					"type": "uint256",
					"indexed": false,
					"internalType": "uint256"
				},
				{
					"name": "newLiquidity",
					"type": "uint128",
					"indexed": false,
					"internalType": "uint128"
				}
			],
			"anonymous": false
		},
		{
			"type": "event",
			"name": "RoleAdminChanged",
			"inputs": [
				{
					"name": "role",
					"type": "bytes32",
					"indexed": true,
					"internalType": "bytes32"
				},
				{
					"name": "previousAdminRole",
					"type": "bytes32",
					"indexed": true,
					"internalType": "bytes32"
				},
				{
					"name": "newAdminRole",
					"type": "bytes32",
					"indexed": true,
					"internalType": "bytes32"
				}
			],
			"anonymous": false
		},
		{
			"type": "event",
			"name": "RoleGranted",
			"inputs": [
				{
					"name": "role",
					"type": "bytes32",
					"indexed": true,
					"internalType": "bytes32"
				},
				{
					"name": "account",
					"type": "address",
					"indexed": true,
					"internalType": "address"
				},
				{
					"name": "sender",
					"type": "address",
					"indexed": true,
					"internalType": "address"
				}
			],
			"anonymous": false
		},
		{
			"type": "event",
			"name": "RoleRevoked",
			"inputs": [
				{
					"name": "role",
					"type": "bytes32",
					"indexed": true,
					"internalType": "bytes32"
				},
				{
					"name": "account",
					"type": "address",
					"indexed": true,
					"internalType": "address"
				},
				{
					"name": "sender",
					"type": "address",
					"indexed": true,
					"internalType": "address"
				}
			],
			"anonymous": false
		},
		{
			"type": "event",
			"name": "TokenPairUpdated",
			"inputs": [
				{
					"name": "token0",
					"type": "address",
					"indexed": false,
					"internalType": "address"
				},
				{
					"name": "token1",
					"type": "address",
					"indexed": false,
					"internalType": "address"
				}
			],
			"anonymous": false
		},
		{
			"type": "event",
			"name": "TreasuryUpdated",
			"inputs": [
				{
					"name": "treasury",
					"type": "address",
					"indexed": false,
					"internalType": "address"
				},
				{
					"name": "treasuryFeePercent",
					"type": "uint256",
					"indexed": false,
					"internalType": "uint256"
				}
			],
			"anonymous": false
		},
		{
			"type": "event",
			"name": "Unpaused",
			"inputs": [
				{
					"name": "account",
					"type": "address",
					"indexed": false,
					"internalType": "address"
				}
			],
			"anonymous": false
		},
		{
			"type": "error",
			"name": "AccessControlBadConfirmation",
			"inputs": []
		},
		{
			"type": "error",
			"name": "AccessControlUnauthorizedAccount",
			"inputs": [
				{
					"name": "account",
					"type": "address",
					"internalType": "address"
				},
				{
					"name": "neededRole",
					"type": "bytes32",
					"internalType": "bytes32"
				}
			]
		},
		{
			"type": "error",
			"name": "EnforcedPause",
			"inputs": []
		},
		{
			"type": "error",
			"name": "ExpectedPause",
			"inputs": []
		},
		{
			"type": "error",
			"name": "ReentrancyGuardReentrantCall",
			"inputs": []
		},
		{
			"type": "error",
			"name": "SafeERC20FailedOperation",
			"inputs": [
				{
					"name": "token",
					"type": "address",
					"internalType": "address"
				}
			]
		}
	],
	"bytecode": {
		"object": "0x60a0346200045857601f6200400f38819003918201601f191683019291906001600160401b038411838510176200045c578161012092849260409687528339810103126200045857620000528162000470565b6020906200006282840162000470565b9284810151620000756060830162000470565b620000836080840162000470565b9060a08401519160c08501519361010060e0870151960151966001998a80556002549160018060a01b03809116958615620004165781831615620003d25761271085116200038e578116948515158062000382575b156200033e571694858514620002fa5786891115620002b657878a11156200027257608052610100600160a81b039060081b169060018060a81b0319161760025560035560018060a01b03199081600454161760045560055416176005556006556007556008556009556200014d3362000485565b50620001593362000503565b50620001653362000591565b5062000171336200061a565b506200017d33620006a3565b505f8051602062003fef833981519152915f80928482525280848320018281549155827fbd79b86ffe0ab8e8776151514217cd7cacd52c909f66475c3af44e129f0b00ff9185838380a4835f8051602062003faf8339815191528085528387862001908282549255838680a4835f8051602062003f8f8339815191528085528387862001908282549255838680a45f8051602062003fcf833981519152918284528584200192848454945580a45161384290816200072d82396080518181816104d801528181610b4c01528181610d02015281816113540152818161146601528181611abd015281816121fb01526132df0152f35b8c5162461bcd60e51b8152600481018c9052601560248201527f496e76616c696420616d6f756e74312072616e676500000000000000000000006044820152606490fd5b8c5162461bcd60e51b8152600481018c9052601560248201527f496e76616c696420616d6f756e74302072616e676500000000000000000000006044820152606490fd5b8c5162461bcd60e51b8152600481018c9052601860248201527f546f6b656e73206d75737420626520646966666572656e7400000000000000006044820152606490fd5b8d5162461bcd60e51b8152600481018d9052601760248201527f496e76616c696420746f6b656e206164647265737365730000000000000000006044820152606490fd5b508181161515620000d8565b8d5162461bcd60e51b8152600481018d9052601b60248201527f4665652070657263656e74206d757374206265203c3d203130302500000000006044820152606490fd5b8d5162461bcd60e51b8152600481018d9052601860248201527f496e76616c6964207472656173757279206164647265737300000000000000006044820152606490fd5b60648c8f519062461bcd60e51b825280600483015260248201527f496e76616c696420706f736974696f6e206d616e6167657220616464726573736044820152fd5b5f80fd5b634e487b7160e01b5f52604160045260245ffd5b51906001600160a01b03821682036200045857565b6001600160a01b03165f8181527fad3228b676f7d3cd4284a5443f17f1962b36e491b30a40b2405849e597ba5fb5602052604081205490919060ff16620004ff57818052816020526040822081835260205260408220600160ff1982541617905533915f8051602062003f6f8339815191528180a4600190565b5090565b6001600160a01b03165f8181527f7d7ffb7a348e1c6a02869081a26547b49160dd3df72d1d75a570eb9b698292ec60205260408120549091905f8051602062003fef8339815191529060ff166200058c57808352826020526040832082845260205260408320600160ff198254161790555f8051602062003f6f833981519152339380a4600190565b505090565b6001600160a01b03165f8181527fee57cd81e84075558e8fcc182a1f4393f91fc97f963a136e66b7f949a62f319f60205260408120549091905f8051602062003faf8339815191529060ff166200058c57808352826020526040832082845260205260408320600160ff198254161790555f8051602062003f6f833981519152339380a4600190565b6001600160a01b03165f8181527f175e50102ecf9cfc73f21ab2786f3296b7cae96dee56a3f6a84b3c656d591ada60205260408120549091905f8051602062003f8f8339815191529060ff166200058c57808352826020526040832082845260205260408320600160ff198254161790555f8051602062003f6f833981519152339380a4600190565b6001600160a01b03165f8181527ff7c9542c591017a21c74b6f3fab6263c7952fc0aaf9db4c22a2a04ddc7f8674f60205260408120549091905f8051602062003fcf8339815191529060ff166200058c57808352826020526040832082845260205260408320600160ff198254161790555f8051602062003f6f833981519152339380a460019056fe6080604081815260049182361015610015575f80fd5b5f92833560e01c91826301ffc9a7146125ab5750816305db2f41146125835781630dfe16811461255b5781631785f53c146125325781631f2d32c314612509578163248a9ca3146124df578163265744f1146121c25781632f2ff15d1461219857816336568abe146121525781633a5fd34d14611a5f5781633f4ba83a146119f557816350a8c639146119d65781635c75dcbc146119b75781635c975abb1461199357816361d027b3146119665781636aaab6f21461186e5781636b2c0f55146118455781636b8c16f3146118265781636f5c041f14611792578163704802751461174357816373e9f8cb146113ab57816375b238fc14611383578163791b98bc1461133f5781637b6eb9b6146112e95781638115c9cc1461129a57816382dc1ec41461124b5781638456cb59146111b257816389ed0221146110e057816391d148541461109d5781639870d7fe14610f8e57816399d7b59414610cc5578163a217fddf14610caa578163ac8a584a14610c5b578163b17acdcd14610b23578163c395fcb314610ad2578163c3a12405146108ee578163d0abd1ad146108cf578163d0c93a7c146108aa578163d21220a714610881578163d547741f14610842578163daf7f900146107f1578163e115bc5c1461043e57508063e63ab1e914610417578063e63ea408146103d5578063eddf757014610325578063ee2e0fdc146102d5578063f3cfcbcf146102b7578063f5b541a6146102905763fc4e3e0a1461023d575f80fd5b3461028c57602036600319011261028c576020918161025a6125fe565b915f8051602061378d8339815191528152808552209060018060a01b03165f52825260ff815f20541690519015158152f35b5080fd5b503461028c578160031936011261028c57602090515f8051602061378d8339815191528152f35b503461028c578160031936011261028c576020906006549051908152f35b503461028c57602036600319011261028c57602091816102f36125fe565b915f805160206137ad8339815191528152808552209060018060a01b03165f52825260ff815f20541690519015158152f35b5090346103d257602090816003193601126103d25782906001600160a01b0361034c6125fe565b168152600a8352818120908251808584549182815201908194845286842090845b8181106103be5750505081610383910382612f77565b83519485948186019282875251809352850193925b8281106103a757505050500390f35b835185528695509381019392810192600101610398565b82548452928801926001928301920161036d565b80fd5b82346103d25760603660031901126103d2576104146103f26125fe565b6103fa612614565b6104026126ba565b604435916001600160a01b03166130ce565b80f35b503461028c578160031936011261028c57602090515f805160206137ad8339815191528152f35b919050346107ed5760603660031901126107ed5760243590604435936104626131bd565b61046a612c14565b610478600654841015612dea565b610486600754861015612e2e565b610494600854841115612e72565b6104a2600954861115612eb6565b83546001600160a01b039484916104c0908390309033908a16613116565b6104d08730338960055416613116565b8581541695807f000000000000000000000000000000000000000000000000000000000000000016968551888163095ea7b360e01b9384825281898161053160209b8c978c840160209093929193604081019460018060a01b031681520152565b03925af180156107e3576105799286928c926107c6575b508a888660055416928b519687958694859384528b840160209093929193604081019460018060a01b031681520152565b03925af180156107bc5761078f575b50610e1042019687421161077c5785519060c0820182811067ffffffffffffffff821117610769578752833582528482018881528783018b8152606084018881526080850189815260a086019c8d528a5163219f5d1760e01b81529551868901529251602486015290516044850152516064840152516084830152975160a48201529684908890815a9360c492606095f195861561075f5784978580986106e6575b505091866060998993857fc3e53dd207da84f2073ef5171a1db111b37e6d53d8a7983f0cf8a7ae89d9cd639689106106ce575b508183106106ac575b50508651913582526001600160801b03929092166020820152604081018590526060810191909152608090a1600180556001600160801b03835195168552840152820152f35b6106c6926106be91600554169261306b565b9033906130ce565b865f80610666565b6106e0906106be8a848854169261306b565b5f61065d565b92975098975093506060883d606011610757575b8161070760609383612f77565b810103126103d25750867fc3e53dd207da84f2073ef5171a1db111b37e6d53d8a7983f0cf8a7ae89d9cd639161073e606099612fb1565b828501519287015198999098979295919350819061062a565b3d91506106fa565b85513d86823e3d90fd5b604185634e487b7160e01b5f525260245ffd5b634e487b7160e01b855260118352602485fd5b6107ae90843d86116107b5575b6107a68183612f77565b810190612f99565b505f610588565b503d61079c565b86513d87823e3d90fd5b6107dc90843d86116107b5576107a68183612f77565b505f610548565b87513d88823e3d90fd5b8280fd5b50503461028c57602036600319011261028c57602091816108106125fe565b915f8051602061376d8339815191528152808552209060018060a01b03165f52825260ff815f20541690519015158152f35b919050346107ed57806003193601126107ed5761087d91356108786001610867612614565b938387528660205286200154612702565b612bb4565b5080f35b50503461028c578160031936011261028c5760055490516001600160a01b039091168152602090f35b50503461028c578160031936011261028c5760209060055460a01c60020b9051908152f35b50503461028c578160031936011261028c576020906008549051908152f35b919050346107ed576101003660031901126107ed5761090b6125fe565b6044359290916001600160a01b038085169260243592848703610ace576064359583871696878103610ace577f8d54d4ae58bb07a7d577407caf8b498dc24b7fb9d8e7933fd041fc126e13e879987fe5dd9ed033d12f33a7a7736a002f6e92eccb6256e91c642d50260a367ec32c5e610abf977f37dc50117b1c3057ae9ef9d4c80099c880654c918f3432491aee46cff5bb09ca946109fe9b6084359b8c9960a4359e8f9b60c4359c6109cc60e4359f6109c36126ba565b88161515612cba565b6109da612710891115612d06565b84151580610ac5575b6109ec90612d52565b6109f886861415612d9e565b11612c32565b610a098b8d11612c76565b600254610100600160a81b038560081b1690610100600160a81b03191617600255846003556bffffffffffffffffffffffff60a01b918282541617905560055416176005558a6006558b6008558760075588600955610a8187519283928360209093929193604081019460018060a01b031681520152565b0390a183516001600160a01b03918216815291166020820152604090a151948594859094939260609260808301968352602083015260408201520152565b0390a180f35b508515156109e3565b5f80fd5b50503461028c57602036600319011261028c5760209181610af16125fe565b915f805160206137ed8339815191528152808552209060018060a01b03165f52825260ff815f20541690519015158152f35b8391503461028c57602036600319011261028c57803591610b426131bd565b610b4a612c14565b7f00000000000000000000000000000000000000000000000000000000000000006001600160a01b031692833b1561028c5784516323b872dd60e01b808252338583019081523060208201526040810184905290959190849082908190606001038183865af18015610c5157908491610c3d575b5050610bc982613284565b949095823b15610c395787519081523091810191825233602083015260408201939093528391839182908490829060600103925af18015610c2f57610c1b575b50506001805582519182526020820152f35b610c258291612efa565b6103d25780610c09565b85513d84823e3d90fd5b8480fd5b610c4690612efa565b6107ed578287610bbe565b87513d86823e3d90fd5b50503461028c57602036600319011261028c5761087d90610ca56001610c7f6125fe565b92610c886126ba565b5f8051602061378d83398151915286528560205285200154612702565b612b30565b50503461028c578160031936011261028c5751908152602090f35b8284346103d257816003193601126103d2578235602435906001600160801b039283831680840361028c57610cf86131bd565b610d00612c14565b7f00000000000000000000000000000000000000000000000000000000000000006001600160a01b031690813b156107ed5786516323b872dd60e01b80825233828b019081523060208201526040810187905290929190859082908190606001038183885af18015610f8457908591610f70575b5050610d7f85613284565b5050610e104201804211610f5d579780999291610dd299825191610da283612f22565b8883526020830152868383015286606083015260808201528151809a8192630624e65f60e11b83528683016131f6565b038187875af1968715610f5357899085998699610f2a575b508151610e269291610dfb82612f3e565b8882523360208301528083830152606082015281518093819263fc6f786560e01b8352878301613233565b038188885af18015610f2057610ef4575b50823b15610ef0578851908152309181019182523360208301526040820185905291839183919082908490829060600103925af18015610ee657610ed2575b505084519081526001600160801b0391909116602082015260408101839052606081018290527f4eeb4be512af87efba5a2a1ac9f141ceb307dc9039d1ec115b74d0374a63f23290608090a16001805582519182526020820152f35b610edc8291612efa565b6103d25780610e76565b87513d84823e3d90fd5b8380fd5b610f13908a3d8c11610f19575b610f0b8183612f77565b8101906131e0565b50610e37565b503d610f01565b8a513d87823e3d90fd5b82610e26939b50610f48929a503d8c11610f1957610f0b8183612f77565b999099989091610dea565b89513d86823e3d90fd5b634e487b7160e01b855260118a52602485fd5b610f7990612efa565b610ef057838a610d74565b89513d87823e3d90fd5b83833461028c57602090816003193601126107ed57610fab6125fe565b91610fb46126ba565b8151948286019086821067ffffffffffffffff83111761108a57508252600b85526a746573742070616161617360a81b8186015281518181019063104c13eb60e21b82528260248201528651806044830152865b818110611076575061107193878060019585611046606482888661087d9f9e9b819b8591010152601f80199101168101036044810184520182612f77565b51906a636f6e736f6c652e6c6f675afa505f8051602061378d83398151915282525285200154612702565b6128ba565b888101850151838201606401528401611008565b604190634e487b7160e01b5f525260245ffd5b9050346107ed57816003193601126107ed57816020936110bb612614565b92358152808552209060018060a01b03165f52825260ff815f20541690519015158152f35b9050346107ed57816003193601126107ed577f37dc50117b1c3057ae9ef9d4c80099c880654c918f3432491aee46cff5bb09ca91610abf61111f6125fe565b91611128612614565b936111316126ba565b611139612c14565b6001600160a01b0384811690811515806111a7575b61115790612d52565b86169161116683831415612d9e565b80546001600160a01b0319908116909217905560058054909116919091179055516001600160a01b0392831681529190921660208201529081906040820190565b50868116151561114e565b9050346107ed57826003193601126107ed575f805160206137ad833981519152805f525f602052825f20335f5260205260ff835f2054161561123057837f62e78cea01bee320cd4e420270b5ea74000d11b0c9f74754ebdbfc544b05a25860208561121b612c14565b600160ff19600254161760025551338152a180f35b604492519163e2517d3f60e01b835233908301526024820152fd5b50503461028c57602036600319011261028c5761087d90611295600161126f6125fe565b926112786126ba565b5f805160206137ad83398151915286528560205285200154612702565b612834565b50503461028c57602036600319011261028c5761087d906112e460016112be6125fe565b926112c76126ba565b5f8051602061376d83398151915286528560205285200154612702565b612aac565b50503461028c578060031936011261028c576113036125fe565b6001600160a01b03168252600a602052808220805460243593908410156103d257506020926113319161263a565b91905490519160031b1c8152f35b50503461028c578160031936011261028c57517f00000000000000000000000000000000000000000000000000000000000000006001600160a01b03168152602090f35b50503461028c578160031936011261028c57602090515f805160206137ed8339815191528152f35b919050346107ed5760803660031901126107ed57813591602435906113ce61262a565b92606435938460020b809503610ace5786906113e86131bd565b6113f0612c14565b6113fe600654881015612dea565b61140c600754861015612e2e565b61141a600854881115612e72565b611428600954861115612eb6565b83546001600160a01b039690611445908990309033908b16613116565b6114558630338a60055416613116565b8454845163095ea7b360e01b8082527f00000000000000000000000000000000000000000000000000000000000000008a166001600160a01b038116838a0190815260208082018e90529791969492939192889183918e169082908690829060400103925af18015611739579289889388938d9661171c575b508d60055416926114ff8c51978896879586948552840160209093929193604081019460018060a01b031681520152565b03925af18015611712576116f5575b508786541691886005541691610e104201928342116116e257928c96959260809592611590958a519461154086612f5a565b85528885015260020b8984015260608301528b858301528960a08301528660c08301528660e08301523361010083015261012082015286519b8c80948193639cc1a28360e01b83528b8301612fee565b03925af19485156116d857829683988496859861167f575b899a9b5093888794846115e09895856116489e998d600a988110611666575b5050505081831061164c575b505050338352522061308c565b80518581526001600160801b03871660208201527fa78f5a3ae3956060409b65f269434c9adb7f766ec36e404db238e4ba26f581f890604090a1600180555194859485909493926001600160801b036060936080840197845216602083015260408201520152565b0390f35b61165e926106be91600554169261306b565b885f806115d3565b611676936106be9254169261306b565b805f808d6115c7565b9650965097509761164896506115e092600a89936116b4879460803d81116116d1575b6116ac8183612f77565b810190612fc5565b919e8f9e50929c50909a90999497509195909450929091506115a8565b503d6116a2565b83513d84823e3d90fd5b634e487b7160e01b8d526011895260248dfd5b61170b90853d87116107b5576107a68183612f77565b505f61150e565b86513d8d823e3d90fd5b61173290863d88116107b5576107a68183612f77565b505f6114ce565b88513d84823e3d90fd5b50503461028c57602036600319011261028c5761087d9061178d60016117676125fe565b92611770612663565b5f805160206137ed83398151915286528560205285200154612702565b6127ae565b919050346107ed5760803660031901126107ed577f8d54d4ae58bb07a7d577407caf8b498dc24b7fb9d8e7933fd041fc126e13e8799135610abf60243592604435606435916117df6126ba565b6117ea858711612c32565b6117f5828411612c76565b8460065585600855816007558260095551948594859094939260609260808301968352602083015260408201520152565b50503461028c578160031936011261028c576020906007549051908152f35b50503461028c57602036600319011261028c5761087d90611869600161126f6125fe565b612a28565b8391503461028c578260031936011261028c576118896125fe565b602435915f8051602061376d833981519152805f525f602052855f20335f5260205260ff865f20541615611949575092937fe5dd9ed033d12f33a7a7736a002f6e92eccb6256e91c642d50260a367ec32c5e9350610abf906118f56001600160a01b0384161515612cba565b611903612710851115612d06565b60028054610100600160a81b031916600885901b610100600160a81b03161790556003849055516001600160a01b03909216825260208201929092529081906040820190565b6044925085519163e2517d3f60e01b835233908301526024820152fd5b50503461028c578160031936011261028c57600254905160089190911c6001600160a01b03168152602090f35b50503461028c578160031936011261028c5760209060ff6002541690519015158152f35b50503461028c578160031936011261028c576020906003549051908152f35b50503461028c578160031936011261028c576020906009549051908152f35b9050346107ed57826003193601126107ed57611a0f6126ba565b6002549060ff821615611a51575060ff1916600255513381527f5db9ee0a495bf2e6ff9c91a7834c1ba4fdd244a5e8aa4e537bd38aeae4b073aa90602090a180f35b8251638dfc202b60e01b8152fd5b8391503461028c57606036600319011261028c578035926024938435948560020b809603610ace57611a8f61262a565b94611a986131bd565b611aa0612c14565b338152602091600a8352848220541561211c576001600160a01b037f0000000000000000000000000000000000000000000000000000000000000000811697909190883b15610ef05786516323b872dd60e01b815233898201908152306020820152604081018890528590829081900360600181838e5af18015612112579085916120fe575b5050611b3186613284565b5050865163133f757160e31b81528881018790526101609a908b8185818e5afa9081156120f45760c098999a9b9c87926120c7575b50506001600160801b0397889101511692611b82841515613577565b610e104201938442116120b557908a8a8e8e611bd99998979695845193611ba885612f22565b84528c8401528a848401528a60608401528760808401528a8451809b81958294630624e65f60e11b845283016131f6565b03925af19586156120ab57908b8b8f8f8d8d8d9c9b9a9998978d9c61207a575b50908594939291611c3a965194611c0f86612f3e565b85523090850152808585015260608401528c845180968195829463fc6f786560e01b84528301613233565b03925af18015611f385761205e575b508d3b1561205a578d888c8f8f90838692519586948593630852cd8d60e31b85528401525af18015611f3857908991612046575b5050611c898b336135c3565b6006548710612005576007548610611fc4576008548711611f83576009548611611f4257508b611cec898f8e8a918c8a875416925180968195829463095ea7b360e01b9a8b8552840160209093929193604081019460018060a01b031681520152565b03925af18015611f38578f908f8f918a958e958e92611f1b575b50611d368b600554169451978896879586948552840160209093929193604081019460018060a01b031681520152565b03925af18015611f115793611dbd938e9f938f8f94908d8a9260809a611ef3575b50505416938860055416815195611d6d87612f5a565b86528d86015284015260020b606083015287858301528660a08301528860c08301528860e083015233610100830152610120820152878c519e8f9485938492639cc1a28360e01b84528301612fee565b03925af1928315611ee9578499859b86908796611e97575b50998099967f8f55e43013c9f291affdbdd16e4164e4ffd0ccc1510170a8c1f54079d32ce60999968d968660609b976116489f978a978982611e339b10611e7e575b50505050818310611e64575b505050338152600a85522061308c565b8651938452830152871684820152a160018055519182526001600160801b0390921660208201529081906040820190565b611e76926106be91600554169261306b565b8e8080611e23565b611e8e936106be9254169261306b565b805f8080611e17565b9197939b50508998959b508a999197945060803d8111611ee2575b611ebc8183612f77565b8101611ec791612fc5565b919d929c50999a96999598939791969095909392508b611dd5565b503d611eb2565b88513d86823e3d90fd5b81611f0992903d106107b5576107a68183612f77565b508d5f611d57565b8c513d8a823e3d90fd5b611f3190873d89116107b5576107a68183612f77565b505f611d06565b8d513d8b823e3d90fd5b8c60196064928b8f519362461bcd60e51b85528401528201527f4e657720616d6f756e74312061626f7665206d6178696d756d000000000000006044820152fd5b8c60196064928b8f519362461bcd60e51b85528401528201527f4e657720616d6f756e74302061626f7665206d6178696d756d000000000000006044820152fd5b8c60196064928b8f519362461bcd60e51b85528401528201527f4e657720616d6f756e74312062656c6f77206d696e696d756d000000000000006044820152fd5b8c60196064928b8f519362461bcd60e51b85528401528201527f4e657720616d6f756e74302062656c6f77206d696e696d756d000000000000006044820152fd5b61204f90612efa565b61205a57878f611c7d565b8780fd5b612074908d803d10610f1957610f0b8183612f77565b50611c49565b86611c3a97969594939e5061209c929d503d8711610f1957610f0b8183612f77565b9c909c9b909192939495611bf9565b8b513d89823e3d90fd5b50634e487b7160e01b865260118b5285fd5b6120e69250803d106120ed575b6120de8183612f77565b810190613492565b8c80611b66565b503d6120d4565b89513d88823e3d90fd5b61210790612efa565b610ef057838b611b26565b88513d87823e3d90fd5b8560126064928588519362461bcd60e51b85528401528201527127379030b1ba34bb32903837b9b4ba34b7b760711b6044820152fd5b83833461028c578060031936011261028c5761216c612614565b90336001600160a01b03831603612189575061087d919235612bb4565b5163334bd91960e11b81528390fd5b919050346107ed57806003193601126107ed5761087d91356121bd6001610867612614565b612940565b919050346107ed57602080600319360112610ef05782356121e16131bd565b6121e9612c14565b338552600a825282852054156124a8577f00000000000000000000000000000000000000000000000000000000000000006001600160a01b031694853b156103d25783516323b872dd60e01b815233868201908152306020820152604081018490528290829081906060010381838b5af18015610c2f57612499575b5061226f82613284565b5050835163133f757160e31b815285810183905261016096908781602481855afa90811561248f5760c09697988492612472575b50506001600160801b039586910151166122be811515613577565b610e10420180421161245f579680989161230d988251916122de83612f22565b8783528883015285838301528560608301526080820152815180998192630624e65f60e11b83528583016131f6565b038186865af19586156124555788908498859861242c575b508151612360929161233682612f3e565b87825233898301528083830152606082015281518093819263fc6f786560e01b8352868301613233565b038187875af18015610f5357612410575b50813b156107ed578360248492838b519586948593630852cd8d60e31b85528401525af18015610ee657908692916123f8575b5050816123d27f82ac44fe03cbf84203fdc07400a8a763498cf2ccaa9788e23b09d56f4fc85f7293336135c3565b8651908152602081019190915260408101849052606090a1600180558351928352820152f35b81925061240490612efa565b6103d2578085916123a4565b61242690893d8b11610f1957610f0b8183612f77565b50612371565b82612360939a5061244a9299503d8b11610f1957610f0b8183612f77565b989098979091612325565b88513d85823e3d90fd5b634e487b7160e01b845260118952602484fd5b6124889250803d106120ed576120de8183612f77565b5f806122a3565b86513d85823e3d90fd5b6124a290612efa565b5f612265565b50905162461bcd60e51b81529182015260126024820152714e6f20706f736974696f6e2065786973747360701b6044820152606490fd5b9050346107ed5760203660031901126107ed57816020936001923581528085522001549051908152f35b50503461028c57602036600319011261028c5761087d9061252d60016112be6125fe565b612723565b50503461028c57602036600319011261028c5761087d9061255660016117676125fe565b6129a4565b9050346107ed57826003193601126107ed575490516001600160a01b03909116815260209150f35b50503461028c578160031936011261028c57602090515f8051602061376d8339815191528152f35b8491346107ed5760203660031901126107ed573563ffffffff60e01b81168091036107ed5760209250637965db0b60e01b81149081156125ed575b5015158152f35b6301ffc9a760e01b149050836125e6565b600435906001600160a01b0382168203610ace57565b602435906001600160a01b0382168203610ace57565b604435908160020b8203610ace57565b805482101561264f575f5260205f2001905f90565b634e487b7160e01b5f52603260045260245ffd5b335f9081527fad3228b676f7d3cd4284a5443f17f1962b36e491b30a40b2405849e597ba5fb5602052604081205460ff161561269c5750565b6044906040519063e2517d3f60e01b82523360048301526024820152fd5b335f9081527f7d7ffb7a348e1c6a02869081a26547b49160dd3df72d1d75a570eb9b698292ec60205260409020545f805160206137ed8339815191529060ff161561269c5750565b805f525f60205260405f20335f5260205260ff60405f2054161561269c5750565b6001600160a01b03165f8181527f175e50102ecf9cfc73f21ab2786f3296b7cae96dee56a3f6a84b3c656d591ada60205260408120549091905f8051602061376d8339815191529060ff166127a957808352826020526040832082845260205260408320600160ff198254161790555f8051602061374d833981519152339380a4600190565b505090565b6001600160a01b03165f8181527f7d7ffb7a348e1c6a02869081a26547b49160dd3df72d1d75a570eb9b698292ec60205260408120549091905f805160206137ed8339815191529060ff166127a957808352826020526040832082845260205260408320600160ff198254161790555f8051602061374d833981519152339380a4600190565b6001600160a01b03165f8181527ff7c9542c591017a21c74b6f3fab6263c7952fc0aaf9db4c22a2a04ddc7f8674f60205260408120549091905f805160206137ad8339815191529060ff166127a957808352826020526040832082845260205260408320600160ff198254161790555f8051602061374d833981519152339380a4600190565b6001600160a01b03165f8181527fee57cd81e84075558e8fcc182a1f4393f91fc97f963a136e66b7f949a62f319f60205260408120549091905f8051602061378d8339815191529060ff166127a957808352826020526040832082845260205260408320600160ff198254161790555f8051602061374d833981519152339380a4600190565b905f9180835282602052604083209160018060a01b03169182845260205260ff604084205416155f146127a957808352826020526040832082845260205260408320600160ff198254161790555f8051602061374d833981519152339380a4600190565b6001600160a01b03165f8181527f7d7ffb7a348e1c6a02869081a26547b49160dd3df72d1d75a570eb9b698292ec60205260408120549091905f805160206137ed8339815191529060ff16156127a95780835282602052604083208284526020526040832060ff1981541690555f805160206137cd833981519152339380a4600190565b6001600160a01b03165f8181527ff7c9542c591017a21c74b6f3fab6263c7952fc0aaf9db4c22a2a04ddc7f8674f60205260408120549091905f805160206137ad8339815191529060ff16156127a95780835282602052604083208284526020526040832060ff1981541690555f805160206137cd833981519152339380a4600190565b6001600160a01b03165f8181527f175e50102ecf9cfc73f21ab2786f3296b7cae96dee56a3f6a84b3c656d591ada60205260408120549091905f8051602061376d8339815191529060ff16156127a95780835282602052604083208284526020526040832060ff1981541690555f805160206137cd833981519152339380a4600190565b6001600160a01b03165f8181527fee57cd81e84075558e8fcc182a1f4393f91fc97f963a136e66b7f949a62f319f60205260408120549091905f8051602061378d8339815191529060ff16156127a95780835282602052604083208284526020526040832060ff1981541690555f805160206137cd833981519152339380a4600190565b905f9180835282602052604083209160018060a01b03169182845260205260ff6040842054165f146127a95780835282602052604083208284526020526040832060ff1981541690555f805160206137cd833981519152339380a4600190565b60ff60025416612c2057565b60405163d93c066560e01b8152600490fd5b15612c3957565b60405162461bcd60e51b8152602060048201526015602482015274496e76616c696420616d6f756e74302072616e676560581b6044820152606490fd5b15612c7d57565b60405162461bcd60e51b8152602060048201526015602482015274496e76616c696420616d6f756e74312072616e676560581b6044820152606490fd5b15612cc157565b60405162461bcd60e51b815260206004820152601860248201527f496e76616c6964207472656173757279206164647265737300000000000000006044820152606490fd5b15612d0d57565b60405162461bcd60e51b815260206004820152601b60248201527f4665652070657263656e74206d757374206265203c3d203130302500000000006044820152606490fd5b15612d5957565b60405162461bcd60e51b815260206004820152601760248201527f496e76616c696420746f6b656e206164647265737365730000000000000000006044820152606490fd5b15612da557565b60405162461bcd60e51b815260206004820152601860248201527f546f6b656e73206d75737420626520646966666572656e7400000000000000006044820152606490fd5b15612df157565b60405162461bcd60e51b8152602060048201526015602482015274416d6f756e74302062656c6f77206d696e696d756d60581b6044820152606490fd5b15612e3557565b60405162461bcd60e51b8152602060048201526015602482015274416d6f756e74312062656c6f77206d696e696d756d60581b6044820152606490fd5b15612e7957565b60405162461bcd60e51b8152602060048201526015602482015274416d6f756e74302061626f7665206d6178696d756d60581b6044820152606490fd5b15612ebd57565b60405162461bcd60e51b8152602060048201526015602482015274416d6f756e74312061626f7665206d6178696d756d60581b6044820152606490fd5b67ffffffffffffffff8111612f0e57604052565b634e487b7160e01b5f52604160045260245ffd5b60a0810190811067ffffffffffffffff821117612f0e57604052565b6080810190811067ffffffffffffffff821117612f0e57604052565b610140810190811067ffffffffffffffff821117612f0e57604052565b90601f8019910116810190811067ffffffffffffffff821117612f0e57604052565b90816020910312610ace57518015158103610ace5790565b51906001600160801b0382168203610ace57565b9190826080910312610ace57815191612fe060208201612fb1565b916060604083015192015190565b91909161014081019260018060a01b03808251168352806020830151166020840152604082015160020b6040840152606082015160020b60608401526080820151608084015260a082015160a084015260c082015160c084015260e082015160e08401526101009081830151169083015261012080910151910152565b9190820391821161307857565b634e487b7160e01b5f52601160045260245ffd5b9081549168010000000000000000831015612f0e57826130b49160016130cc9501815561263a565b90919082549060031b91821b915f19901b1916179055565b565b60405163a9059cbb60e01b60208201526001600160a01b03909216602483015260448201929092526130cc9161311182606481015b03601f198101845283612f77565b613158565b6040516323b872dd60e01b60208201526001600160a01b03928316602482015292909116604483015260648201929092526130cc916131118260848101613103565b905f602091828151910182855af1156131b2575f513d6131a957506001600160a01b0381163b155b6131875750565b604051635274afe760e01b81526001600160a01b039091166004820152602490fd5b60011415613180565b6040513d5f823e3d90fd5b6002600154146131ce576002600155565b604051633ee5aeb560e01b8152600490fd5b9190826040910312610ace576020825192015190565b91909160808060a0830194805184526001600160801b03602082015116602085015260408101516040850152606081015160608501520151910152565b919091606060808201938051835260018060a01b036020820151166020840152816001600160801b0391826040820151166040860152015116910152565b8181029291811591840414171561307857565b906132cb91604090815161329781612f3e565b8181523060208201526001600160801b038382018190526060820152825163fc6f786560e01b815294859160048301613233565b6001600160a01b039591849183919003815f7f00000000000000000000000000000000000000000000000000000000000000008a165af1928315613467575f918294613419575b50916133ab61335f927f9c0b8dbe70f518b70b00233786ad3c56f1c506045ffc40eb1542fa63cd719381946133806003549261337a612710806133558785613271565b049889968c613271565b049485928d82806133fb575b5084806133dd575b505061306b565b9861306b565b98876133c8575b89806133b2575b505051938493846040919493926060820195825260208201520152565b0390a19190565b6133c1916005541633906130ce565b5f8961338e565b6133d888826004541633906130ce565b613387565b816133f492600554169060025460081c16906130ce565b8d84613373565b8161341292600454169060025460081c16906130ce565b8d8261336b565b81945061335f925061345c6133ab917f9c0b8dbe70f518b70b00233786ad3c56f1c506045ffc40eb1542fa63cd71938195933d8811610f1957610f0b8183612f77565b959294509250613312565b513d5f823e3d90fd5b51906001600160a01b0382168203610ace57565b51908160020b8203610ace57565b80916101609283910312610ace5760405191820182811067ffffffffffffffff821117612f0e5760405280516bffffffffffffffffffffffff81168103610ace5782526134e160208201613470565b60208301526134f260408201613470565b604083015261350360608201613470565b606083015261351460808201613484565b608083015261352560a08201613484565b60a083015261353660c08201612fb1565b60c083015260e081015160e0830152610100808201519083015261012061355e818301612fb1565b90830152613570610140809201612fb1565b9082015290565b1561357e57565b60405162461bcd60e51b815260206004820152601860248201527f4e6f206c697175696469747920696e20706f736974696f6e00000000000000006044820152606490fd5b6001600160a01b03165f908152600a60205260408120805492909190831561370e578390825b8581106136c9575b50508381101561368f575f199380850190811161367b5761364091613619613623928661263a565b929054918661263a565b91909260031b1c9082549060031b91821b915f19901b1916179055565b81549081156136675750820191613657838361263a565b909182549160031b1b1916905555565b634e487b7160e01b81526031600452602490fd5b634e487b7160e01b83526011600452602483fd5b60405162461bcd60e51b8152602060048201526012602482015271141bdcda5d1a5bdb881b9bdd08199bdd5b9960721b6044820152606490fd5b816136d4828761263a565b90549060031b1c14613704575f1981146136f0576001016135e9565b634e487b7160e01b84526011600452602484fd5b9150505f806135f1565b60405162461bcd60e51b81526020600482015260166024820152754e6f20706f736974696f6e7320746f2072656d6f766560501b6044820152606490fdfe2f8788117e7eff1d82e926ec794901d17c78024a50270940304540a733656f0d6c0757dc3e6b28b2580c03fd9e96c274acf4f99d91fbec9b418fa1d70604ff1c97667070c54ef182b0f5858b034beac1b6f3089aa2d3188bb1e8929f4fa9b92965d7a28e3265b37a6474929f336521b332c1681b933f6cb9f3376673440d862af6391f5c32d9c69d2a47ea670b442974b53935d1edc7fd64eb21e047a839171ba49807205ce4d355092ef5a8a18f56e8913cf4a201fbe287825b095693c21775a2646970667358221220c0466c7b3d7f6cb33713cbc7f34f36b520f013eaf8a3d34f77cb70cf7edc8b6764736f6c634300081400332f8788117e7eff1d82e926ec794901d17c78024a50270940304540a733656f0d6c0757dc3e6b28b2580c03fd9e96c274acf4f99d91fbec9b418fa1d70604ff1c97667070c54ef182b0f5858b034beac1b6f3089aa2d3188bb1e8929f4fa9b92965d7a28e3265b37a6474929f336521b332c1681b933f6cb9f3376673440d862aa49807205ce4d355092ef5a8a18f56e8913cf4a201fbe287825b095693c21775",
		"linkReferences": {}
	},
	"methodIdentifiers": {
		"ADMIN_ROLE()": "75b238fc",
		"DEFAULT_ADMIN_ROLE()": "a217fddf",
		"FEE_MANAGER_ROLE()": "05db2f41",
		"OPERATOR_ROLE()": "f5b541a6",
		"PAUSER_ROLE()": "e63ab1e9",
		"addAdmin(address)": "70480275",
		"addFeeManager(address)": "1f2d32c3",
		"addOperator(address)": "9870d7fe",
		"addPauser(address)": "82dc1ec4",
		"batchUpdateConfig(address,uint256,address,address,uint256,uint256,uint256,uint256)": "c3a12405",
		"burnLiquidity(uint256)": "265744f1",
		"collectFees(uint256)": "b17acdcd",
		"decreaseLiquidity(uint256,uint128)": "99d7b594",
		"emergencyWithdraw(address,address,uint256)": "e63ea408",
		"getRoleAdmin(bytes32)": "248a9ca3",
		"getUserPositionIds(address)": "eddf7570",
		"grantRole(bytes32,address)": "2f2ff15d",
		"hasAdminRole(address)": "c395fcb3",
		"hasFeeManagerRole(address)": "daf7f900",
		"hasOperatorRole(address)": "fc4e3e0a",
		"hasPauserRole(address)": "ee2e0fdc",
		"hasRole(bytes32,address)": "91d14854",
		"increaseLiquidity(uint256,uint256,uint256)": "e115bc5c",
		"maxAmount0()": "d0abd1ad",
		"maxAmount1()": "50a8c639",
		"minAmount0()": "f3cfcbcf",
		"minAmount1()": "6b8c16f3",
		"mintLiquidity(uint256,uint256,int24,int24)": "73e9f8cb",
		"pause()": "8456cb59",
		"paused()": "5c975abb",
		"positionManager()": "791b98bc",
		"rebalanceLiquidity(uint256,int24,int24)": "3a5fd34d",
		"removeAdmin(address)": "1785f53c",
		"removeFeeManager(address)": "8115c9cc",
		"removeOperator(address)": "ac8a584a",
		"removePauser(address)": "6b2c0f55",
		"renounceRole(bytes32,address)": "36568abe",
		"revokeRole(bytes32,address)": "d547741f",
		"supportsInterface(bytes4)": "01ffc9a7",
		"tickSpacing()": "d0c93a7c",
		"token0()": "0dfe1681",
		"token1()": "d21220a7",
		"treasury()": "61d027b3",
		"treasuryFeePercent()": "5c75dcbc",
		"unpause()": "3f4ba83a",
		"updateAmountLimits(uint256,uint256,uint256,uint256)": "6f5c041f",
		"updateTokenPair(address,address)": "89ed0221",
		"updateTreasury(address,uint256)": "6aaab6f2",
		"userPositionIds(address,uint256)": "7b6eb9b6"
	},
	"id": 29
}